{
  "_format": "hh-sol-artifact-1",
  "contractName": "TokenFarm",
  "sourceName": "contracts/TokenFarm.sol",
  "abi": [
    {
      "inputs": [
        {
          "internalType": "address",
          "name": "_dappTokenAddress",
          "type": "address"
        }
      ],
      "stateMutability": "nonpayable",
      "type": "constructor"
    },
    {
      "inputs": [
        {
          "internalType": "address",
          "name": "spender",
          "type": "address"
        }
      ],
      "name": "TokenFarm__AddressLessThan1DayForDappToken",
      "type": "error"
    },
    {
      "inputs": [],
      "name": "TokenFarm__BalanceMustBeMoreThanZero",
      "type": "error"
    },
    {
      "anonymous": false,
      "inputs": [
        {
          "indexed": true,
          "internalType": "address",
          "name": "previousOwner",
          "type": "address"
        },
        {
          "indexed": true,
          "internalType": "address",
          "name": "newOwner",
          "type": "address"
        }
      ],
      "name": "OwnershipTransferred",
      "type": "event"
    },
    {
      "inputs": [
        {
          "internalType": "address",
          "name": "",
          "type": "address"
        }
      ],
      "name": "addressToLastGetDappToken",
      "outputs": [
        {
          "internalType": "uint256",
          "name": "",
          "type": "uint256"
        }
      ],
      "stateMutability": "view",
      "type": "function"
    },
    {
      "inputs": [
        {
          "internalType": "uint256",
          "name": "",
          "type": "uint256"
        }
      ],
      "name": "allowedTokens",
      "outputs": [
        {
          "internalType": "address",
          "name": "",
          "type": "address"
        }
      ],
      "stateMutability": "view",
      "type": "function"
    },
    {
      "inputs": [],
      "name": "dappToken",
      "outputs": [
        {
          "internalType": "contract IERC20",
          "name": "",
          "type": "address"
        }
      ],
      "stateMutability": "view",
      "type": "function"
    },
    {
      "inputs": [],
      "name": "get10DappToken",
      "outputs": [],
      "stateMutability": "nonpayable",
      "type": "function"
    },
    {
      "inputs": [
        {
          "internalType": "address",
          "name": "_token",
          "type": "address"
        }
      ],
      "name": "getTokenValue",
      "outputs": [
        {
          "internalType": "uint256",
          "name": "",
          "type": "uint256"
        },
        {
          "internalType": "uint256",
          "name": "",
          "type": "uint256"
        }
      ],
      "stateMutability": "view",
      "type": "function"
    },
    {
      "inputs": [
        {
          "internalType": "address",
          "name": "_user",
          "type": "address"
        },
        {
          "internalType": "address",
          "name": "_token",
          "type": "address"
        }
      ],
      "name": "getUserSingleTokenValue",
      "outputs": [
        {
          "internalType": "uint256",
          "name": "",
          "type": "uint256"
        }
      ],
      "stateMutability": "view",
      "type": "function"
    },
    {
      "inputs": [
        {
          "internalType": "address",
          "name": "_user",
          "type": "address"
        }
      ],
      "name": "getUserTotalValue",
      "outputs": [
        {
          "internalType": "uint256",
          "name": "",
          "type": "uint256"
        }
      ],
      "stateMutability": "view",
      "type": "function"
    },
    {
      "inputs": [],
      "name": "issueRewards",
      "outputs": [],
      "stateMutability": "nonpayable",
      "type": "function"
    },
    {
      "inputs": [],
      "name": "owner",
      "outputs": [
        {
          "internalType": "address",
          "name": "",
          "type": "address"
        }
      ],
      "stateMutability": "view",
      "type": "function"
    },
    {
      "inputs": [],
      "name": "renounceOwnership",
      "outputs": [],
      "stateMutability": "nonpayable",
      "type": "function"
    },
    {
      "inputs": [
        {
          "internalType": "address",
          "name": "_token",
          "type": "address"
        },
        {
          "internalType": "address",
          "name": "_priceFeed",
          "type": "address"
        }
      ],
      "name": "setPriceFeedContract",
      "outputs": [],
      "stateMutability": "nonpayable",
      "type": "function"
    },
    {
      "inputs": [
        {
          "internalType": "uint256",
          "name": "_amount",
          "type": "uint256"
        },
        {
          "internalType": "address",
          "name": "_token",
          "type": "address"
        }
      ],
      "name": "stakeTokens",
      "outputs": [],
      "stateMutability": "nonpayable",
      "type": "function"
    },
    {
      "inputs": [
        {
          "internalType": "uint256",
          "name": "",
          "type": "uint256"
        }
      ],
      "name": "stakers",
      "outputs": [
        {
          "internalType": "address",
          "name": "",
          "type": "address"
        }
      ],
      "stateMutability": "view",
      "type": "function"
    },
    {
      "inputs": [
        {
          "internalType": "address",
          "name": "",
          "type": "address"
        },
        {
          "internalType": "address",
          "name": "",
          "type": "address"
        }
      ],
      "name": "stakingBalance",
      "outputs": [
        {
          "internalType": "uint256",
          "name": "",
          "type": "uint256"
        }
      ],
      "stateMutability": "view",
      "type": "function"
    },
    {
      "inputs": [
        {
          "internalType": "address",
          "name": "",
          "type": "address"
        },
        {
          "internalType": "address",
          "name": "",
          "type": "address"
        }
      ],
      "name": "stakingReward",
      "outputs": [
        {
          "internalType": "uint256",
          "name": "",
          "type": "uint256"
        }
      ],
      "stateMutability": "view",
      "type": "function"
    },
    {
      "inputs": [
        {
          "internalType": "address",
          "name": "_token",
          "type": "address"
        }
      ],
      "name": "tokenIsAllowed",
      "outputs": [
        {
          "internalType": "bool",
          "name": "",
          "type": "bool"
        }
      ],
      "stateMutability": "view",
      "type": "function"
    },
    {
      "inputs": [
        {
          "internalType": "address",
          "name": "",
          "type": "address"
        }
      ],
      "name": "tokenPriceFeedMapping",
      "outputs": [
        {
          "internalType": "address",
          "name": "",
          "type": "address"
        }
      ],
      "stateMutability": "view",
      "type": "function"
    },
    {
      "inputs": [
        {
          "internalType": "address",
          "name": "newOwner",
          "type": "address"
        }
      ],
      "name": "transferOwnership",
      "outputs": [],
      "stateMutability": "nonpayable",
      "type": "function"
    },
    {
      "inputs": [
        {
          "internalType": "address",
          "name": "",
          "type": "address"
        }
      ],
      "name": "uniqueTokensStaked",
      "outputs": [
        {
          "internalType": "uint256",
          "name": "",
          "type": "uint256"
        }
      ],
      "stateMutability": "view",
      "type": "function"
    },
    {
      "inputs": [
        {
          "internalType": "address",
          "name": "_token",
          "type": "address"
        },
        {
          "internalType": "uint256",
          "name": "_amount",
          "type": "uint256"
        }
      ],
      "name": "unstakeTokens",
      "outputs": [],
      "stateMutability": "nonpayable",
      "type": "function"
    },
    {
      "inputs": [
        {
          "internalType": "address",
          "name": "_token",
          "type": "address"
        }
      ],
      "name": "withdrawReward",
      "outputs": [],
      "stateMutability": "nonpayable",
      "type": "function"
    }
  ],
  "bytecode": "0x60806040523480156200001157600080fd5b5060405162002764380380620027648339818101604052810190620000379190620001d5565b620000576200004b6200009f60201b60201c565b620000a760201b60201c565b80600860006101000a81548173ffffffffffffffffffffffffffffffffffffffff021916908373ffffffffffffffffffffffffffffffffffffffff1602179055505062000207565b600033905090565b60008060009054906101000a900473ffffffffffffffffffffffffffffffffffffffff169050816000806101000a81548173ffffffffffffffffffffffffffffffffffffffff021916908373ffffffffffffffffffffffffffffffffffffffff1602179055508173ffffffffffffffffffffffffffffffffffffffff168173ffffffffffffffffffffffffffffffffffffffff167f8be0079c531659141344cd1fd0a4f28419497f9722a3daafe3b4186f6b6457e060405160405180910390a35050565b600080fd5b600073ffffffffffffffffffffffffffffffffffffffff82169050919050565b60006200019d8262000170565b9050919050565b620001af8162000190565b8114620001bb57600080fd5b50565b600081519050620001cf81620001a4565b92915050565b600060208284031215620001ee57620001ed6200016b565b5b6000620001fe84828501620001be565b91505092915050565b61254d80620002176000396000f3fe608060405234801561001057600080fd5b50600436106101375760003560e01c8063877dd39d116100b8578063b86e321c1161007c578063b86e321c1461034e578063dd5b84671461036a578063e89a173e1461039a578063f1c5d6c2146103b6578063f2fde38b146103e7578063fd5e6dd11461040357610137565b8063877dd39d146102aa5780638da5cb5b146102c6578063af3f5e22146102e4578063b0370e0c14610314578063b83e02341461031e57610137565b8063387ad87c116100ff578063387ad87c146102185780635e5f2e26146102485780635eb186f814610278578063715018a6146102965780638144fee0146102a057610137565b8063014ff6341461013c5780630bea440d1461016c578063276b11da1461018857806327927b3e146101b857806329161a00146101e8575b600080fd5b610156600480360381019061015191906119c1565b610433565b6040516101639190611a1a565b60405180910390f35b61018660048036038101906101819190611a61565b610458565b005b6101a2600480360381019061019d91906119c1565b6106c0565b6040516101af9190611a1a565b60405180910390f35b6101d260048036038101906101cd9190611aa1565b6107cb565b6040516101df9190611add565b60405180910390f35b61020260048036038101906101fd91906119c1565b6107fe565b60405161020f9190611a1a565b60405180910390f35b610232600480360381019061022d9190611aa1565b610823565b60405161023f9190611a1a565b60405180910390f35b610262600480360381019061025d9190611af8565b61083b565b60405161026f9190611add565b60405180910390f35b61028061087a565b60405161028d9190611b84565b60405180910390f35b61029e6108a0565b005b6102a86108b4565b005b6102c460048036038101906102bf91906119c1565b610a44565b005b6102ce610bde565b6040516102db9190611add565b60405180910390f35b6102fe60048036038101906102f99190611aa1565b610c07565b60405161030b9190611a1a565b60405180910390f35b61031c610c90565b005b61033860048036038101906103339190611aa1565b610f7e565b6040516103459190611a1a565b60405180910390f35b61036860048036038101906103639190611aa1565b610f96565b005b610384600480360381019061037f9190611aa1565b611187565b6040516103919190611bba565b60405180910390f35b6103b460048036038101906103af9190611bd5565b611236565b005b6103d060048036038101906103cb9190611aa1565b6114eb565b6040516103de929190611c15565b60405180910390f35b61040160048036038101906103fc9190611aa1565b611671565b005b61041d60048036038101906104189190611af8565b6116f5565b60405161042a9190611add565b60405180910390f35b6002602052816000526040600020602052806000526040600020600091509150505481565b6000821161049b576040517f08c379a000000000000000000000000000000000000000000000000000000000815260040161049290611c9b565b60405180910390fd5b6104a481611187565b6104e3576040517f08c379a00000000000000000000000000000000000000000000000000000000081526004016104da90611d07565b60405180910390fd5b8073ffffffffffffffffffffffffffffffffffffffff166323b872dd3330856040518463ffffffff1660e01b815260040161052093929190611d27565b602060405180830381600087803b15801561053a57600080fd5b505af115801561054e573d6000803e3d6000fd5b505050506040513d601f19601f820116820180604052508101906105729190611d8a565b5061057d3382611734565b81600160008373ffffffffffffffffffffffffffffffffffffffff1673ffffffffffffffffffffffffffffffffffffffff16815260200190815260200160002060003373ffffffffffffffffffffffffffffffffffffffff1673ffffffffffffffffffffffffffffffffffffffff16815260200190815260200160002060008282546106099190611de6565b925050819055506001600360003373ffffffffffffffffffffffffffffffffffffffff1673ffffffffffffffffffffffffffffffffffffffff1681526020019081526020016000205414156106bc576006339080600181540180825580915050600190039060005260206000200160009091909190916101000a81548173ffffffffffffffffffffffffffffffffffffffff021916908373ffffffffffffffffffffffffffffffffffffffff1602179055505b5050565b600080600360008573ffffffffffffffffffffffffffffffffffffffff1673ffffffffffffffffffffffffffffffffffffffff168152602001908152602001600020541161071157600090506107c5565b60008061071d846114eb565b9150915080600a61072e9190611f6f565b82600160008773ffffffffffffffffffffffffffffffffffffffff1673ffffffffffffffffffffffffffffffffffffffff16815260200190815260200160002060008873ffffffffffffffffffffffffffffffffffffffff1673ffffffffffffffffffffffffffffffffffffffff168152602001908152602001600020546107b69190611fba565b6107c09190612043565b925050505b92915050565b60046020528060005260406000206000915054906101000a900473ffffffffffffffffffffffffffffffffffffffff1681565b6001602052816000526040600020602052806000526040600020600091509150505481565b60056020528060005260406000206000915090505481565b6007818154811061084b57600080fd5b906000526020600020016000915054906101000a900473ffffffffffffffffffffffffffffffffffffffff1681565b600860009054906101000a900473ffffffffffffffffffffffffffffffffffffffff1681565b6108a8611814565b6108b26000611892565b565b62015180600560003373ffffffffffffffffffffffffffffffffffffffff1673ffffffffffffffffffffffffffffffffffffffff16815260200190815260200160002054426109039190612074565b101561094657336040517f64187f0e00000000000000000000000000000000000000000000000000000000815260040161093d9190611add565b60405180910390fd5b42600560003373ffffffffffffffffffffffffffffffffffffffff1673ffffffffffffffffffffffffffffffffffffffff16815260200190815260200160002081905550600860009054906101000a900473ffffffffffffffffffffffffffffffffffffffff1673ffffffffffffffffffffffffffffffffffffffff1663a9059cbb33678ac7230489e800006040518363ffffffff1660e01b81526004016109ef9291906120e3565b602060405180830381600087803b158015610a0957600080fd5b505af1158015610a1d573d6000803e3d6000fd5b505050506040513d601f19601f82011682018060405250810190610a419190611d8a565b50565b610a4c611814565b600080600780549050905060005b81811015610af0578473ffffffffffffffffffffffffffffffffffffffff1660078281548110610a8d57610a8c61210c565b5b9060005260206000200160009054906101000a900473ffffffffffffffffffffffffffffffffffffffff1673ffffffffffffffffffffffffffffffffffffffff161415610add5760019250610af0565b8080610ae89061213b565b915050610a5a565b5081610b5a576007849080600181540180825580915050600190039060005260206000200160009091909190916101000a81548173ffffffffffffffffffffffffffffffffffffffff021916908373ffffffffffffffffffffffffffffffffffffffff1602179055505b82600460008673ffffffffffffffffffffffffffffffffffffffff1673ffffffffffffffffffffffffffffffffffffffff16815260200190815260200160002060006101000a81548173ffffffffffffffffffffffffffffffffffffffff021916908373ffffffffffffffffffffffffffffffffffffffff16021790555050505050565b60008060009054906101000a900473ffffffffffffffffffffffffffffffffffffffff16905090565b6000806000905060005b600780549050811015610c8657610c668460078381548110610c3657610c3561210c565b5b9060005260206000200160009054906101000a900473ffffffffffffffffffffffffffffffffffffffff166106c0565b82610c719190611de6565b91508080610c7e9061213b565b915050610c11565b5080915050919050565b610c98611814565b60005b600680549050811015610f7b5760005b600780549050811015610f675760006001600060078481548110610cd257610cd161210c565b5b9060005260206000200160009054906101000a900473ffffffffffffffffffffffffffffffffffffffff1673ffffffffffffffffffffffffffffffffffffffff1673ffffffffffffffffffffffffffffffffffffffff168152602001908152602001600020600060068581548110610d4d57610d4c61210c565b5b9060005260206000200160009054906101000a900473ffffffffffffffffffffffffffffffffffffffff1673ffffffffffffffffffffffffffffffffffffffff1673ffffffffffffffffffffffffffffffffffffffff168152602001908152602001600020541115610f54576000610e4160068481548110610dd257610dd161210c565b5b9060005260206000200160009054906101000a900473ffffffffffffffffffffffffffffffffffffffff1660078481548110610e1157610e1061210c565b5b9060005260206000200160009054906101000a900473ffffffffffffffffffffffffffffffffffffffff166106c0565b9050806002600060068681548110610e5c57610e5b61210c565b5b9060005260206000200160009054906101000a900473ffffffffffffffffffffffffffffffffffffffff1673ffffffffffffffffffffffffffffffffffffffff1673ffffffffffffffffffffffffffffffffffffffff168152602001908152602001600020600060078581548110610ed757610ed661210c565b5b9060005260206000200160009054906101000a900473ffffffffffffffffffffffffffffffffffffffff1673ffffffffffffffffffffffffffffffffffffffff1673ffffffffffffffffffffffffffffffffffffffff1681526020019081526020016000206000828254610f4b9190611de6565b92505081905550505b8080610f5f9061213b565b915050610cab565b508080610f739061213b565b915050610c9b565b50565b60036020528060005260406000206000915090505481565b6000600260003373ffffffffffffffffffffffffffffffffffffffff1673ffffffffffffffffffffffffffffffffffffffff16815260200190815260200160002060008373ffffffffffffffffffffffffffffffffffffffff1673ffffffffffffffffffffffffffffffffffffffff16815260200190815260200160002054905060008111611051576040517fd67ecd6100000000000000000000000000000000000000000000000000000000815260040160405180910390fd5b6000600260003373ffffffffffffffffffffffffffffffffffffffff1673ffffffffffffffffffffffffffffffffffffffff16815260200190815260200160002060008473ffffffffffffffffffffffffffffffffffffffff1673ffffffffffffffffffffffffffffffffffffffff16815260200190815260200160002081905550600860009054906101000a900473ffffffffffffffffffffffffffffffffffffffff1673ffffffffffffffffffffffffffffffffffffffff1663a9059cbb33836040518363ffffffff1660e01b8152600401611130929190612184565b602060405180830381600087803b15801561114a57600080fd5b505af115801561115e573d6000803e3d6000fd5b505050506040513d601f19601f820116820180604052508101906111829190611d8a565b505050565b600080600090505b60078054905081101561122b57600781815481106111b0576111af61210c565b5b9060005260206000200160009054906101000a900473ffffffffffffffffffffffffffffffffffffffff1673ffffffffffffffffffffffffffffffffffffffff168373ffffffffffffffffffffffffffffffffffffffff161415611218576001915050611231565b80806112239061213b565b91505061118f565b50600090505b919050565b6000600160008473ffffffffffffffffffffffffffffffffffffffff1673ffffffffffffffffffffffffffffffffffffffff16815260200190815260200160002060003373ffffffffffffffffffffffffffffffffffffffff1673ffffffffffffffffffffffffffffffffffffffff168152602001908152602001600020549050600081116112fa576040517f08c379a00000000000000000000000000000000000000000000000000000000081526004016112f1906121f9565b60405180910390fd5b600082600160008673ffffffffffffffffffffffffffffffffffffffff1673ffffffffffffffffffffffffffffffffffffffff16815260200190815260200160002060003373ffffffffffffffffffffffffffffffffffffffff1673ffffffffffffffffffffffffffffffffffffffff168152602001908152602001600020546113849190612074565b10156113c5576040517f08c379a00000000000000000000000000000000000000000000000000000000081526004016113bc9061228b565b60405180910390fd5b8273ffffffffffffffffffffffffffffffffffffffff1663a9059cbb33846040518363ffffffff1660e01b8152600401611400929190612184565b602060405180830381600087803b15801561141a57600080fd5b505af115801561142e573d6000803e3d6000fd5b505050506040513d601f19601f820116820180604052508101906114529190611d8a565b5081600160008573ffffffffffffffffffffffffffffffffffffffff1673ffffffffffffffffffffffffffffffffffffffff16815260200190815260200160002060003373ffffffffffffffffffffffffffffffffffffffff1673ffffffffffffffffffffffffffffffffffffffff16815260200190815260200160002060008282546114df9190612074565b92505081905550505050565b6000806000600460008573ffffffffffffffffffffffffffffffffffffffff1673ffffffffffffffffffffffffffffffffffffffff16815260200190815260200160002060009054906101000a900473ffffffffffffffffffffffffffffffffffffffff169050600081905060008173ffffffffffffffffffffffffffffffffffffffff1663feaf968c6040518163ffffffff1660e01b815260040160a06040518083038186803b15801561159f57600080fd5b505afa1580156115b3573d6000803e3d6000fd5b505050506040513d601f19601f820116820180604052508101906115d79190612338565b50505091505060008273ffffffffffffffffffffffffffffffffffffffff1663313ce5676040518163ffffffff1660e01b815260040160206040518083038186803b15801561162557600080fd5b505afa158015611639573d6000803e3d6000fd5b505050506040513d601f19601f8201168201806040525081019061165d91906123ec565b60ff16905081819550955050505050915091565b611679611814565b600073ffffffffffffffffffffffffffffffffffffffff168173ffffffffffffffffffffffffffffffffffffffff1614156116e9576040517f08c379a00000000000000000000000000000000000000000000000000000000081526004016116e09061248b565b60405180910390fd5b6116f281611892565b50565b6006818154811061170557600080fd5b906000526020600020016000915054906101000a900473ffffffffffffffffffffffffffffffffffffffff1681565b6000600160008373ffffffffffffffffffffffffffffffffffffffff1673ffffffffffffffffffffffffffffffffffffffff16815260200190815260200160002060008473ffffffffffffffffffffffffffffffffffffffff1673ffffffffffffffffffffffffffffffffffffffff1681526020019081526020016000205411611810576001600360008473ffffffffffffffffffffffffffffffffffffffff1673ffffffffffffffffffffffffffffffffffffffff16815260200190815260200160002060008282546118089190611de6565b925050819055505b5050565b61181c611956565b73ffffffffffffffffffffffffffffffffffffffff1661183a610bde565b73ffffffffffffffffffffffffffffffffffffffff1614611890576040517f08c379a0000000000000000000000000000000000000000000000000000000008152600401611887906124f7565b60405180910390fd5b565b60008060009054906101000a900473ffffffffffffffffffffffffffffffffffffffff169050816000806101000a81548173ffffffffffffffffffffffffffffffffffffffff021916908373ffffffffffffffffffffffffffffffffffffffff1602179055508173ffffffffffffffffffffffffffffffffffffffff168173ffffffffffffffffffffffffffffffffffffffff167f8be0079c531659141344cd1fd0a4f28419497f9722a3daafe3b4186f6b6457e060405160405180910390a35050565b600033905090565b600080fd5b600073ffffffffffffffffffffffffffffffffffffffff82169050919050565b600061198e82611963565b9050919050565b61199e81611983565b81146119a957600080fd5b50565b6000813590506119bb81611995565b92915050565b600080604083850312156119d8576119d761195e565b5b60006119e6858286016119ac565b92505060206119f7858286016119ac565b9150509250929050565b6000819050919050565b611a1481611a01565b82525050565b6000602082019050611a2f6000830184611a0b565b92915050565b611a3e81611a01565b8114611a4957600080fd5b50565b600081359050611a5b81611a35565b92915050565b60008060408385031215611a7857611a7761195e565b5b6000611a8685828601611a4c565b9250506020611a97858286016119ac565b9150509250929050565b600060208284031215611ab757611ab661195e565b5b6000611ac5848285016119ac565b91505092915050565b611ad781611983565b82525050565b6000602082019050611af26000830184611ace565b92915050565b600060208284031215611b0e57611b0d61195e565b5b6000611b1c84828501611a4c565b91505092915050565b6000819050919050565b6000611b4a611b45611b4084611963565b611b25565b611963565b9050919050565b6000611b5c82611b2f565b9050919050565b6000611b6e82611b51565b9050919050565b611b7e81611b63565b82525050565b6000602082019050611b996000830184611b75565b92915050565b60008115159050919050565b611bb481611b9f565b82525050565b6000602082019050611bcf6000830184611bab565b92915050565b60008060408385031215611bec57611beb61195e565b5b6000611bfa858286016119ac565b9250506020611c0b85828601611a4c565b9150509250929050565b6000604082019050611c2a6000830185611a0b565b611c376020830184611a0b565b9392505050565b600082825260208201905092915050565b7f416d6f756e74206d757374206265206d6f7265207468616e207a65726f210000600082015250565b6000611c85601e83611c3e565b9150611c9082611c4f565b602082019050919050565b60006020820190508181036000830152611cb481611c78565b9050919050565b7f546f6b656e2069732063757272656e746c79206e6f7420616c6c6f7765642100600082015250565b6000611cf1601f83611c3e565b9150611cfc82611cbb565b602082019050919050565b60006020820190508181036000830152611d2081611ce4565b9050919050565b6000606082019050611d3c6000830186611ace565b611d496020830185611ace565b611d566040830184611a0b565b949350505050565b611d6781611b9f565b8114611d7257600080fd5b50565b600081519050611d8481611d5e565b92915050565b600060208284031215611da057611d9f61195e565b5b6000611dae84828501611d75565b91505092915050565b7f4e487b7100000000000000000000000000000000000000000000000000000000600052601160045260246000fd5b6000611df182611a01565b9150611dfc83611a01565b9250827fffffffffffffffffffffffffffffffffffffffffffffffffffffffffffffffff03821115611e3157611e30611db7565b5b828201905092915050565b60008160011c9050919050565b6000808291508390505b6001851115611e9357808604811115611e6f57611e6e611db7565b5b6001851615611e7e5780820291505b8081029050611e8c85611e3c565b9450611e53565b94509492505050565b600082611eac5760019050611f68565b81611eba5760009050611f68565b8160018114611ed05760028114611eda57611f09565b6001915050611f68565b60ff841115611eec57611eeb611db7565b5b8360020a915084821115611f0357611f02611db7565b5b50611f68565b5060208310610133831016604e8410600b8410161715611f3e5782820a905083811115611f3957611f38611db7565b5b611f68565b611f4b8484846001611e49565b92509050818404811115611f6257611f61611db7565b5b81810290505b9392505050565b6000611f7a82611a01565b9150611f8583611a01565b9250611fb27fffffffffffffffffffffffffffffffffffffffffffffffffffffffffffffffff8484611e9c565b905092915050565b6000611fc582611a01565b9150611fd083611a01565b9250817fffffffffffffffffffffffffffffffffffffffffffffffffffffffffffffffff048311821515161561200957612008611db7565b5b828202905092915050565b7f4e487b7100000000000000000000000000000000000000000000000000000000600052601260045260246000fd5b600061204e82611a01565b915061205983611a01565b92508261206957612068612014565b5b828204905092915050565b600061207f82611a01565b915061208a83611a01565b92508282101561209d5761209c611db7565b5b828203905092915050565b6000819050919050565b60006120cd6120c86120c3846120a8565b611b25565b611a01565b9050919050565b6120dd816120b2565b82525050565b60006040820190506120f86000830185611ace565b61210560208301846120d4565b9392505050565b7f4e487b7100000000000000000000000000000000000000000000000000000000600052603260045260246000fd5b600061214682611a01565b91507fffffffffffffffffffffffffffffffffffffffffffffffffffffffffffffffff82141561217957612178611db7565b5b600182019050919050565b60006040820190506121996000830185611ace565b6121a66020830184611a0b565b9392505050565b7f5374616b696e672062616c616e63652063616e6e6f7420626520300000000000600082015250565b60006121e3601b83611c3e565b91506121ee826121ad565b602082019050919050565b60006020820190508181036000830152612212816121d6565b9050919050565b7f62616c616e6365202d20616d6f756e7420756e7374616b6564206d757374206260008201527f65206d6f7265207468616e206f7220657175616c20746f207a65726f00000000602082015250565b6000612275603c83611c3e565b915061228082612219565b604082019050919050565b600060208201905081810360008301526122a481612268565b9050919050565b600069ffffffffffffffffffff82169050919050565b6122ca816122ab565b81146122d557600080fd5b50565b6000815190506122e7816122c1565b92915050565b6000819050919050565b612300816122ed565b811461230b57600080fd5b50565b60008151905061231d816122f7565b92915050565b60008151905061233281611a35565b92915050565b600080600080600060a086880312156123545761235361195e565b5b6000612362888289016122d8565b95505060206123738882890161230e565b945050604061238488828901612323565b935050606061239588828901612323565b92505060806123a6888289016122d8565b9150509295509295909350565b600060ff82169050919050565b6123c9816123b3565b81146123d457600080fd5b50565b6000815190506123e6816123c0565b92915050565b6000602082840312156124025761240161195e565b5b6000612410848285016123d7565b91505092915050565b7f4f776e61626c653a206e6577206f776e657220697320746865207a65726f206160008201527f6464726573730000000000000000000000000000000000000000000000000000602082015250565b6000612475602683611c3e565b915061248082612419565b604082019050919050565b600060208201905081810360008301526124a481612468565b9050919050565b7f4f776e61626c653a2063616c6c6572206973206e6f7420746865206f776e6572600082015250565b60006124e1602083611c3e565b91506124ec826124ab565b602082019050919050565b60006020820190508181036000830152612510816124d4565b905091905056fea26469706673582212208af3b9073d8c420825bc1b0826c1e5f4d44ebb615bc78f4d03aababb7fdc6f2064736f6c63430008080033",
  "linkReferences": {},
  "deployedLinkReferences": {}
}