{
  "_format": "hh-sol-artifact-1",
  "contractName": "TokenFarm",
  "sourceName": "contracts/TokenFarm.sol",
  "abi": [
    {
      "inputs": [
        {
          "internalType": "address",
          "name": "_dappTokenAddress",
          "type": "address"
        }
      ],
      "stateMutability": "nonpayable",
      "type": "constructor"
    },
    {
      "inputs": [
        {
          "internalType": "address",
          "name": "spender",
          "type": "address"
        }
      ],
      "name": "TokenFarm__AddressLessThan1DayForDappToken",
      "type": "error"
    },
    {
      "inputs": [],
      "name": "TokenFarm__BalanceMustBeMoreThanZero",
      "type": "error"
    },
    {
      "anonymous": false,
      "inputs": [
        {
          "indexed": true,
          "internalType": "address",
          "name": "previousOwner",
          "type": "address"
        },
        {
          "indexed": true,
          "internalType": "address",
          "name": "newOwner",
          "type": "address"
        }
      ],
      "name": "OwnershipTransferred",
      "type": "event"
    },
    {
      "inputs": [
        {
          "internalType": "address",
          "name": "",
          "type": "address"
        }
      ],
      "name": "addressToLastGetDappToken",
      "outputs": [
        {
          "internalType": "uint256",
          "name": "",
          "type": "uint256"
        }
      ],
      "stateMutability": "view",
      "type": "function"
    },
    {
      "inputs": [
        {
          "internalType": "uint256",
          "name": "",
          "type": "uint256"
        }
      ],
      "name": "allowedTokens",
      "outputs": [
        {
          "internalType": "address",
          "name": "",
          "type": "address"
        }
      ],
      "stateMutability": "view",
      "type": "function"
    },
    {
      "inputs": [],
      "name": "dappToken",
      "outputs": [
        {
          "internalType": "contract IERC20",
          "name": "",
          "type": "address"
        }
      ],
      "stateMutability": "view",
      "type": "function"
    },
    {
      "inputs": [],
      "name": "get100DappToken",
      "outputs": [],
      "stateMutability": "nonpayable",
      "type": "function"
    },
    {
      "inputs": [
        {
          "internalType": "address",
          "name": "_token",
          "type": "address"
        }
      ],
      "name": "getTokenValue",
      "outputs": [
        {
          "internalType": "uint256",
          "name": "",
          "type": "uint256"
        },
        {
          "internalType": "uint256",
          "name": "",
          "type": "uint256"
        }
      ],
      "stateMutability": "view",
      "type": "function"
    },
    {
      "inputs": [
        {
          "internalType": "address",
          "name": "_user",
          "type": "address"
        },
        {
          "internalType": "address",
          "name": "_token",
          "type": "address"
        }
      ],
      "name": "getUserSingleTokenValue",
      "outputs": [
        {
          "internalType": "uint256",
          "name": "",
          "type": "uint256"
        }
      ],
      "stateMutability": "view",
      "type": "function"
    },
    {
      "inputs": [
        {
          "internalType": "address",
          "name": "_user",
          "type": "address"
        }
      ],
      "name": "getUserTotalValue",
      "outputs": [
        {
          "internalType": "uint256",
          "name": "",
          "type": "uint256"
        }
      ],
      "stateMutability": "view",
      "type": "function"
    },
    {
      "inputs": [],
      "name": "issueRewards",
      "outputs": [],
      "stateMutability": "nonpayable",
      "type": "function"
    },
    {
      "inputs": [],
      "name": "owner",
      "outputs": [
        {
          "internalType": "address",
          "name": "",
          "type": "address"
        }
      ],
      "stateMutability": "view",
      "type": "function"
    },
    {
      "inputs": [],
      "name": "renounceOwnership",
      "outputs": [],
      "stateMutability": "nonpayable",
      "type": "function"
    },
    {
      "inputs": [
        {
          "internalType": "address",
          "name": "_token",
          "type": "address"
        },
        {
          "internalType": "address",
          "name": "_priceFeed",
          "type": "address"
        }
      ],
      "name": "setPriceFeedContract",
      "outputs": [],
      "stateMutability": "nonpayable",
      "type": "function"
    },
    {
      "inputs": [
        {
          "internalType": "uint256",
          "name": "_amount",
          "type": "uint256"
        },
        {
          "internalType": "address",
          "name": "_token",
          "type": "address"
        }
      ],
      "name": "stakeTokens",
      "outputs": [],
      "stateMutability": "nonpayable",
      "type": "function"
    },
    {
      "inputs": [
        {
          "internalType": "uint256",
          "name": "",
          "type": "uint256"
        }
      ],
      "name": "stakers",
      "outputs": [
        {
          "internalType": "address",
          "name": "",
          "type": "address"
        }
      ],
      "stateMutability": "view",
      "type": "function"
    },
    {
      "inputs": [
        {
          "internalType": "address",
          "name": "",
          "type": "address"
        },
        {
          "internalType": "address",
          "name": "",
          "type": "address"
        }
      ],
      "name": "stakingBalance",
      "outputs": [
        {
          "internalType": "uint256",
          "name": "",
          "type": "uint256"
        }
      ],
      "stateMutability": "view",
      "type": "function"
    },
    {
      "inputs": [
        {
          "internalType": "address",
          "name": "",
          "type": "address"
        },
        {
          "internalType": "address",
          "name": "",
          "type": "address"
        }
      ],
      "name": "stakingReward",
      "outputs": [
        {
          "internalType": "uint256",
          "name": "",
          "type": "uint256"
        }
      ],
      "stateMutability": "view",
      "type": "function"
    },
    {
      "inputs": [
        {
          "internalType": "address",
          "name": "_token",
          "type": "address"
        }
      ],
      "name": "tokenIsAllowed",
      "outputs": [
        {
          "internalType": "bool",
          "name": "",
          "type": "bool"
        }
      ],
      "stateMutability": "view",
      "type": "function"
    },
    {
      "inputs": [
        {
          "internalType": "address",
          "name": "",
          "type": "address"
        }
      ],
      "name": "tokenPriceFeedMapping",
      "outputs": [
        {
          "internalType": "address",
          "name": "",
          "type": "address"
        }
      ],
      "stateMutability": "view",
      "type": "function"
    },
    {
      "inputs": [
        {
          "internalType": "address",
          "name": "newOwner",
          "type": "address"
        }
      ],
      "name": "transferOwnership",
      "outputs": [],
      "stateMutability": "nonpayable",
      "type": "function"
    },
    {
      "inputs": [
        {
          "internalType": "address",
          "name": "",
          "type": "address"
        }
      ],
      "name": "uniqueTokensStaked",
      "outputs": [
        {
          "internalType": "uint256",
          "name": "",
          "type": "uint256"
        }
      ],
      "stateMutability": "view",
      "type": "function"
    },
    {
      "inputs": [
        {
          "internalType": "address",
          "name": "_token",
          "type": "address"
        },
        {
          "internalType": "uint256",
          "name": "_amount",
          "type": "uint256"
        }
      ],
      "name": "unstakeTokens",
      "outputs": [],
      "stateMutability": "nonpayable",
      "type": "function"
    },
    {
      "inputs": [
        {
          "internalType": "address",
          "name": "_token",
          "type": "address"
        }
      ],
      "name": "withdrawReward",
      "outputs": [],
      "stateMutability": "nonpayable",
      "type": "function"
    }
  ],
  "bytecode": "0x60806040523480156200001157600080fd5b5060405162002765380380620027658339818101604052810190620000379190620001d5565b620000576200004b6200009f60201b60201c565b620000a760201b60201c565b80600860006101000a81548173ffffffffffffffffffffffffffffffffffffffff021916908373ffffffffffffffffffffffffffffffffffffffff1602179055505062000207565b600033905090565b60008060009054906101000a900473ffffffffffffffffffffffffffffffffffffffff169050816000806101000a81548173ffffffffffffffffffffffffffffffffffffffff021916908373ffffffffffffffffffffffffffffffffffffffff1602179055508173ffffffffffffffffffffffffffffffffffffffff168173ffffffffffffffffffffffffffffffffffffffff167f8be0079c531659141344cd1fd0a4f28419497f9722a3daafe3b4186f6b6457e060405160405180910390a35050565b600080fd5b600073ffffffffffffffffffffffffffffffffffffffff82169050919050565b60006200019d8262000170565b9050919050565b620001af8162000190565b8114620001bb57600080fd5b50565b600081519050620001cf81620001a4565b92915050565b600060208284031215620001ee57620001ed6200016b565b5b6000620001fe84828501620001be565b91505092915050565b61254e80620002176000396000f3fe608060405234801561001057600080fd5b50600436106101375760003560e01c8063877dd39d116100b8578063b86e321c1161007c578063b86e321c1461034e578063dd5b84671461036a578063e89a173e1461039a578063f1c5d6c2146103b6578063f2fde38b146103e7578063fd5e6dd11461040357610137565b8063877dd39d146102aa5780638da5cb5b146102c6578063af3f5e22146102e4578063b0370e0c14610314578063b83e02341461031e57610137565b8063387ad87c116100ff578063387ad87c146102185780635e5f2e26146102485780635eb186f814610278578063715018a61461029657806380cfcddc146102a057610137565b8063014ff6341461013c5780630bea440d1461016c578063276b11da1461018857806327927b3e146101b857806329161a00146101e8575b600080fd5b610156600480360381019061015191906119c2565b610433565b6040516101639190611a1b565b60405180910390f35b61018660048036038101906101819190611a62565b610458565b005b6101a2600480360381019061019d91906119c2565b6106c0565b6040516101af9190611a1b565b60405180910390f35b6101d260048036038101906101cd9190611aa2565b6107cb565b6040516101df9190611ade565b60405180910390f35b61020260048036038101906101fd91906119c2565b6107fe565b60405161020f9190611a1b565b60405180910390f35b610232600480360381019061022d9190611aa2565b610823565b60405161023f9190611a1b565b60405180910390f35b610262600480360381019061025d9190611af9565b61083b565b60405161026f9190611ade565b60405180910390f35b61028061087a565b60405161028d9190611b85565b60405180910390f35b61029e6108a0565b005b6102a86108b4565b005b6102c460048036038101906102bf91906119c2565b610a45565b005b6102ce610bdf565b6040516102db9190611ade565b60405180910390f35b6102fe60048036038101906102f99190611aa2565b610c08565b60405161030b9190611a1b565b60405180910390f35b61031c610c91565b005b61033860048036038101906103339190611aa2565b610f7f565b6040516103459190611a1b565b60405180910390f35b61036860048036038101906103639190611aa2565b610f97565b005b610384600480360381019061037f9190611aa2565b611188565b6040516103919190611bbb565b60405180910390f35b6103b460048036038101906103af9190611bd6565b611237565b005b6103d060048036038101906103cb9190611aa2565b6114ec565b6040516103de929190611c16565b60405180910390f35b61040160048036038101906103fc9190611aa2565b611672565b005b61041d60048036038101906104189190611af9565b6116f6565b60405161042a9190611ade565b60405180910390f35b6002602052816000526040600020602052806000526040600020600091509150505481565b6000821161049b576040517f08c379a000000000000000000000000000000000000000000000000000000000815260040161049290611c9c565b60405180910390fd5b6104a481611188565b6104e3576040517f08c379a00000000000000000000000000000000000000000000000000000000081526004016104da90611d08565b60405180910390fd5b8073ffffffffffffffffffffffffffffffffffffffff166323b872dd3330856040518463ffffffff1660e01b815260040161052093929190611d28565b602060405180830381600087803b15801561053a57600080fd5b505af115801561054e573d6000803e3d6000fd5b505050506040513d601f19601f820116820180604052508101906105729190611d8b565b5061057d3382611735565b81600160008373ffffffffffffffffffffffffffffffffffffffff1673ffffffffffffffffffffffffffffffffffffffff16815260200190815260200160002060003373ffffffffffffffffffffffffffffffffffffffff1673ffffffffffffffffffffffffffffffffffffffff16815260200190815260200160002060008282546106099190611de7565b925050819055506001600360003373ffffffffffffffffffffffffffffffffffffffff1673ffffffffffffffffffffffffffffffffffffffff1681526020019081526020016000205414156106bc576006339080600181540180825580915050600190039060005260206000200160009091909190916101000a81548173ffffffffffffffffffffffffffffffffffffffff021916908373ffffffffffffffffffffffffffffffffffffffff1602179055505b5050565b600080600360008573ffffffffffffffffffffffffffffffffffffffff1673ffffffffffffffffffffffffffffffffffffffff168152602001908152602001600020541161071157600090506107c5565b60008061071d846114ec565b9150915080600a61072e9190611f70565b82600160008773ffffffffffffffffffffffffffffffffffffffff1673ffffffffffffffffffffffffffffffffffffffff16815260200190815260200160002060008873ffffffffffffffffffffffffffffffffffffffff1673ffffffffffffffffffffffffffffffffffffffff168152602001908152602001600020546107b69190611fbb565b6107c09190612044565b925050505b92915050565b60046020528060005260406000206000915054906101000a900473ffffffffffffffffffffffffffffffffffffffff1681565b6001602052816000526040600020602052806000526040600020600091509150505481565b60056020528060005260406000206000915090505481565b6007818154811061084b57600080fd5b906000526020600020016000915054906101000a900473ffffffffffffffffffffffffffffffffffffffff1681565b600860009054906101000a900473ffffffffffffffffffffffffffffffffffffffff1681565b6108a8611815565b6108b26000611893565b565b62015180600560003373ffffffffffffffffffffffffffffffffffffffff1673ffffffffffffffffffffffffffffffffffffffff16815260200190815260200160002054426109039190612075565b101561094657336040517f64187f0e00000000000000000000000000000000000000000000000000000000815260040161093d9190611ade565b60405180910390fd5b42600560003373ffffffffffffffffffffffffffffffffffffffff1673ffffffffffffffffffffffffffffffffffffffff16815260200190815260200160002081905550600860009054906101000a900473ffffffffffffffffffffffffffffffffffffffff1673ffffffffffffffffffffffffffffffffffffffff1663a9059cbb3368056bc75e2d631000006040518363ffffffff1660e01b81526004016109f09291906120e4565b602060405180830381600087803b158015610a0a57600080fd5b505af1158015610a1e573d6000803e3d6000fd5b505050506040513d601f19601f82011682018060405250810190610a429190611d8b565b50565b610a4d611815565b600080600780549050905060005b81811015610af1578473ffffffffffffffffffffffffffffffffffffffff1660078281548110610a8e57610a8d61210d565b5b9060005260206000200160009054906101000a900473ffffffffffffffffffffffffffffffffffffffff1673ffffffffffffffffffffffffffffffffffffffff161415610ade5760019250610af1565b8080610ae99061213c565b915050610a5b565b5081610b5b576007849080600181540180825580915050600190039060005260206000200160009091909190916101000a81548173ffffffffffffffffffffffffffffffffffffffff021916908373ffffffffffffffffffffffffffffffffffffffff1602179055505b82600460008673ffffffffffffffffffffffffffffffffffffffff1673ffffffffffffffffffffffffffffffffffffffff16815260200190815260200160002060006101000a81548173ffffffffffffffffffffffffffffffffffffffff021916908373ffffffffffffffffffffffffffffffffffffffff16021790555050505050565b60008060009054906101000a900473ffffffffffffffffffffffffffffffffffffffff16905090565b6000806000905060005b600780549050811015610c8757610c678460078381548110610c3757610c3661210d565b5b9060005260206000200160009054906101000a900473ffffffffffffffffffffffffffffffffffffffff166106c0565b82610c729190611de7565b91508080610c7f9061213c565b915050610c12565b5080915050919050565b610c99611815565b60005b600680549050811015610f7c5760005b600780549050811015610f685760006001600060078481548110610cd357610cd261210d565b5b9060005260206000200160009054906101000a900473ffffffffffffffffffffffffffffffffffffffff1673ffffffffffffffffffffffffffffffffffffffff1673ffffffffffffffffffffffffffffffffffffffff168152602001908152602001600020600060068581548110610d4e57610d4d61210d565b5b9060005260206000200160009054906101000a900473ffffffffffffffffffffffffffffffffffffffff1673ffffffffffffffffffffffffffffffffffffffff1673ffffffffffffffffffffffffffffffffffffffff168152602001908152602001600020541115610f55576000610e4260068481548110610dd357610dd261210d565b5b9060005260206000200160009054906101000a900473ffffffffffffffffffffffffffffffffffffffff1660078481548110610e1257610e1161210d565b5b9060005260206000200160009054906101000a900473ffffffffffffffffffffffffffffffffffffffff166106c0565b9050806002600060068681548110610e5d57610e5c61210d565b5b9060005260206000200160009054906101000a900473ffffffffffffffffffffffffffffffffffffffff1673ffffffffffffffffffffffffffffffffffffffff1673ffffffffffffffffffffffffffffffffffffffff168152602001908152602001600020600060078581548110610ed857610ed761210d565b5b9060005260206000200160009054906101000a900473ffffffffffffffffffffffffffffffffffffffff1673ffffffffffffffffffffffffffffffffffffffff1673ffffffffffffffffffffffffffffffffffffffff1681526020019081526020016000206000828254610f4c9190611de7565b92505081905550505b8080610f609061213c565b915050610cac565b508080610f749061213c565b915050610c9c565b50565b60036020528060005260406000206000915090505481565b6000600260003373ffffffffffffffffffffffffffffffffffffffff1673ffffffffffffffffffffffffffffffffffffffff16815260200190815260200160002060008373ffffffffffffffffffffffffffffffffffffffff1673ffffffffffffffffffffffffffffffffffffffff16815260200190815260200160002054905060008111611052576040517fd67ecd6100000000000000000000000000000000000000000000000000000000815260040160405180910390fd5b6000600260003373ffffffffffffffffffffffffffffffffffffffff1673ffffffffffffffffffffffffffffffffffffffff16815260200190815260200160002060008473ffffffffffffffffffffffffffffffffffffffff1673ffffffffffffffffffffffffffffffffffffffff16815260200190815260200160002081905550600860009054906101000a900473ffffffffffffffffffffffffffffffffffffffff1673ffffffffffffffffffffffffffffffffffffffff1663a9059cbb33836040518363ffffffff1660e01b8152600401611131929190612185565b602060405180830381600087803b15801561114b57600080fd5b505af115801561115f573d6000803e3d6000fd5b505050506040513d601f19601f820116820180604052508101906111839190611d8b565b505050565b600080600090505b60078054905081101561122c57600781815481106111b1576111b061210d565b5b9060005260206000200160009054906101000a900473ffffffffffffffffffffffffffffffffffffffff1673ffffffffffffffffffffffffffffffffffffffff168373ffffffffffffffffffffffffffffffffffffffff161415611219576001915050611232565b80806112249061213c565b915050611190565b50600090505b919050565b6000600160008473ffffffffffffffffffffffffffffffffffffffff1673ffffffffffffffffffffffffffffffffffffffff16815260200190815260200160002060003373ffffffffffffffffffffffffffffffffffffffff1673ffffffffffffffffffffffffffffffffffffffff168152602001908152602001600020549050600081116112fb576040517f08c379a00000000000000000000000000000000000000000000000000000000081526004016112f2906121fa565b60405180910390fd5b600082600160008673ffffffffffffffffffffffffffffffffffffffff1673ffffffffffffffffffffffffffffffffffffffff16815260200190815260200160002060003373ffffffffffffffffffffffffffffffffffffffff1673ffffffffffffffffffffffffffffffffffffffff168152602001908152602001600020546113859190612075565b10156113c6576040517f08c379a00000000000000000000000000000000000000000000000000000000081526004016113bd9061228c565b60405180910390fd5b8273ffffffffffffffffffffffffffffffffffffffff1663a9059cbb33846040518363ffffffff1660e01b8152600401611401929190612185565b602060405180830381600087803b15801561141b57600080fd5b505af115801561142f573d6000803e3d6000fd5b505050506040513d601f19601f820116820180604052508101906114539190611d8b565b5081600160008573ffffffffffffffffffffffffffffffffffffffff1673ffffffffffffffffffffffffffffffffffffffff16815260200190815260200160002060003373ffffffffffffffffffffffffffffffffffffffff1673ffffffffffffffffffffffffffffffffffffffff16815260200190815260200160002060008282546114e09190612075565b92505081905550505050565b6000806000600460008573ffffffffffffffffffffffffffffffffffffffff1673ffffffffffffffffffffffffffffffffffffffff16815260200190815260200160002060009054906101000a900473ffffffffffffffffffffffffffffffffffffffff169050600081905060008173ffffffffffffffffffffffffffffffffffffffff1663feaf968c6040518163ffffffff1660e01b815260040160a06040518083038186803b1580156115a057600080fd5b505afa1580156115b4573d6000803e3d6000fd5b505050506040513d601f19601f820116820180604052508101906115d89190612339565b50505091505060008273ffffffffffffffffffffffffffffffffffffffff1663313ce5676040518163ffffffff1660e01b815260040160206040518083038186803b15801561162657600080fd5b505afa15801561163a573d6000803e3d6000fd5b505050506040513d601f19601f8201168201806040525081019061165e91906123ed565b60ff16905081819550955050505050915091565b61167a611815565b600073ffffffffffffffffffffffffffffffffffffffff168173ffffffffffffffffffffffffffffffffffffffff1614156116ea576040517f08c379a00000000000000000000000000000000000000000000000000000000081526004016116e19061248c565b60405180910390fd5b6116f381611893565b50565b6006818154811061170657600080fd5b906000526020600020016000915054906101000a900473ffffffffffffffffffffffffffffffffffffffff1681565b6000600160008373ffffffffffffffffffffffffffffffffffffffff1673ffffffffffffffffffffffffffffffffffffffff16815260200190815260200160002060008473ffffffffffffffffffffffffffffffffffffffff1673ffffffffffffffffffffffffffffffffffffffff1681526020019081526020016000205411611811576001600360008473ffffffffffffffffffffffffffffffffffffffff1673ffffffffffffffffffffffffffffffffffffffff16815260200190815260200160002060008282546118099190611de7565b925050819055505b5050565b61181d611957565b73ffffffffffffffffffffffffffffffffffffffff1661183b610bdf565b73ffffffffffffffffffffffffffffffffffffffff1614611891576040517f08c379a0000000000000000000000000000000000000000000000000000000008152600401611888906124f8565b60405180910390fd5b565b60008060009054906101000a900473ffffffffffffffffffffffffffffffffffffffff169050816000806101000a81548173ffffffffffffffffffffffffffffffffffffffff021916908373ffffffffffffffffffffffffffffffffffffffff1602179055508173ffffffffffffffffffffffffffffffffffffffff168173ffffffffffffffffffffffffffffffffffffffff167f8be0079c531659141344cd1fd0a4f28419497f9722a3daafe3b4186f6b6457e060405160405180910390a35050565b600033905090565b600080fd5b600073ffffffffffffffffffffffffffffffffffffffff82169050919050565b600061198f82611964565b9050919050565b61199f81611984565b81146119aa57600080fd5b50565b6000813590506119bc81611996565b92915050565b600080604083850312156119d9576119d861195f565b5b60006119e7858286016119ad565b92505060206119f8858286016119ad565b9150509250929050565b6000819050919050565b611a1581611a02565b82525050565b6000602082019050611a306000830184611a0c565b92915050565b611a3f81611a02565b8114611a4a57600080fd5b50565b600081359050611a5c81611a36565b92915050565b60008060408385031215611a7957611a7861195f565b5b6000611a8785828601611a4d565b9250506020611a98858286016119ad565b9150509250929050565b600060208284031215611ab857611ab761195f565b5b6000611ac6848285016119ad565b91505092915050565b611ad881611984565b82525050565b6000602082019050611af36000830184611acf565b92915050565b600060208284031215611b0f57611b0e61195f565b5b6000611b1d84828501611a4d565b91505092915050565b6000819050919050565b6000611b4b611b46611b4184611964565b611b26565b611964565b9050919050565b6000611b5d82611b30565b9050919050565b6000611b6f82611b52565b9050919050565b611b7f81611b64565b82525050565b6000602082019050611b9a6000830184611b76565b92915050565b60008115159050919050565b611bb581611ba0565b82525050565b6000602082019050611bd06000830184611bac565b92915050565b60008060408385031215611bed57611bec61195f565b5b6000611bfb858286016119ad565b9250506020611c0c85828601611a4d565b9150509250929050565b6000604082019050611c2b6000830185611a0c565b611c386020830184611a0c565b9392505050565b600082825260208201905092915050565b7f416d6f756e74206d757374206265206d6f7265207468616e207a65726f210000600082015250565b6000611c86601e83611c3f565b9150611c9182611c50565b602082019050919050565b60006020820190508181036000830152611cb581611c79565b9050919050565b7f546f6b656e2069732063757272656e746c79206e6f7420616c6c6f7765642100600082015250565b6000611cf2601f83611c3f565b9150611cfd82611cbc565b602082019050919050565b60006020820190508181036000830152611d2181611ce5565b9050919050565b6000606082019050611d3d6000830186611acf565b611d4a6020830185611acf565b611d576040830184611a0c565b949350505050565b611d6881611ba0565b8114611d7357600080fd5b50565b600081519050611d8581611d5f565b92915050565b600060208284031215611da157611da061195f565b5b6000611daf84828501611d76565b91505092915050565b7f4e487b7100000000000000000000000000000000000000000000000000000000600052601160045260246000fd5b6000611df282611a02565b9150611dfd83611a02565b9250827fffffffffffffffffffffffffffffffffffffffffffffffffffffffffffffffff03821115611e3257611e31611db8565b5b828201905092915050565b60008160011c9050919050565b6000808291508390505b6001851115611e9457808604811115611e7057611e6f611db8565b5b6001851615611e7f5780820291505b8081029050611e8d85611e3d565b9450611e54565b94509492505050565b600082611ead5760019050611f69565b81611ebb5760009050611f69565b8160018114611ed15760028114611edb57611f0a565b6001915050611f69565b60ff841115611eed57611eec611db8565b5b8360020a915084821115611f0457611f03611db8565b5b50611f69565b5060208310610133831016604e8410600b8410161715611f3f5782820a905083811115611f3a57611f39611db8565b5b611f69565b611f4c8484846001611e4a565b92509050818404811115611f6357611f62611db8565b5b81810290505b9392505050565b6000611f7b82611a02565b9150611f8683611a02565b9250611fb37fffffffffffffffffffffffffffffffffffffffffffffffffffffffffffffffff8484611e9d565b905092915050565b6000611fc682611a02565b9150611fd183611a02565b9250817fffffffffffffffffffffffffffffffffffffffffffffffffffffffffffffffff048311821515161561200a57612009611db8565b5b828202905092915050565b7f4e487b7100000000000000000000000000000000000000000000000000000000600052601260045260246000fd5b600061204f82611a02565b915061205a83611a02565b92508261206a57612069612015565b5b828204905092915050565b600061208082611a02565b915061208b83611a02565b92508282101561209e5761209d611db8565b5b828203905092915050565b6000819050919050565b60006120ce6120c96120c4846120a9565b611b26565b611a02565b9050919050565b6120de816120b3565b82525050565b60006040820190506120f96000830185611acf565b61210660208301846120d5565b9392505050565b7f4e487b7100000000000000000000000000000000000000000000000000000000600052603260045260246000fd5b600061214782611a02565b91507fffffffffffffffffffffffffffffffffffffffffffffffffffffffffffffffff82141561217a57612179611db8565b5b600182019050919050565b600060408201905061219a6000830185611acf565b6121a76020830184611a0c565b9392505050565b7f5374616b696e672062616c616e63652063616e6e6f7420626520300000000000600082015250565b60006121e4601b83611c3f565b91506121ef826121ae565b602082019050919050565b60006020820190508181036000830152612213816121d7565b9050919050565b7f62616c616e6365202d20616d6f756e7420756e7374616b6564206d757374206260008201527f65206d6f7265207468616e206f7220657175616c20746f207a65726f00000000602082015250565b6000612276603c83611c3f565b91506122818261221a565b604082019050919050565b600060208201905081810360008301526122a581612269565b9050919050565b600069ffffffffffffffffffff82169050919050565b6122cb816122ac565b81146122d657600080fd5b50565b6000815190506122e8816122c2565b92915050565b6000819050919050565b612301816122ee565b811461230c57600080fd5b50565b60008151905061231e816122f8565b92915050565b60008151905061233381611a36565b92915050565b600080600080600060a086880312156123555761235461195f565b5b6000612363888289016122d9565b95505060206123748882890161230f565b945050604061238588828901612324565b935050606061239688828901612324565b92505060806123a7888289016122d9565b9150509295509295909350565b600060ff82169050919050565b6123ca816123b4565b81146123d557600080fd5b50565b6000815190506123e7816123c1565b92915050565b6000602082840312156124035761240261195f565b5b6000612411848285016123d8565b91505092915050565b7f4f776e61626c653a206e6577206f776e657220697320746865207a65726f206160008201527f6464726573730000000000000000000000000000000000000000000000000000602082015250565b6000612476602683611c3f565b91506124818261241a565b604082019050919050565b600060208201905081810360008301526124a581612469565b9050919050565b7f4f776e61626c653a2063616c6c6572206973206e6f7420746865206f776e6572600082015250565b60006124e2602083611c3f565b91506124ed826124ac565b602082019050919050565b60006020820190508181036000830152612511816124d5565b905091905056fea26469706673582212203560dd60b7998bc8a6e3a5933b203432a79647482ec6b61a0f2aaa835168fdd464736f6c63430008080033",
  "linkReferences": {},
  "deployedLinkReferences": {}
}