{
  "_format": "hh-sol-artifact-1",
  "contractName": "TokenFarm",
  "sourceName": "contracts/TokenFarm.sol",
  "abi": [
    {
      "inputs": [
        {
          "internalType": "address",
          "name": "_dappTokenAddress",
          "type": "address"
        }
      ],
      "stateMutability": "nonpayable",
      "type": "constructor"
    },
    {
      "inputs": [
        {
          "internalType": "address",
          "name": "spender",
          "type": "address"
        }
      ],
      "name": "TokenFarm__AddressLessThan1DayForDappToken",
      "type": "error"
    },
    {
      "inputs": [],
      "name": "TokenFarm__BalanceMustBeMoreThanZero",
      "type": "error"
    },
    {
      "anonymous": false,
      "inputs": [
        {
          "indexed": true,
          "internalType": "address",
          "name": "previousOwner",
          "type": "address"
        },
        {
          "indexed": true,
          "internalType": "address",
          "name": "newOwner",
          "type": "address"
        }
      ],
      "name": "OwnershipTransferred",
      "type": "event"
    },
    {
      "inputs": [
        {
          "internalType": "address",
          "name": "",
          "type": "address"
        }
      ],
      "name": "addressToLastGetDappToken",
      "outputs": [
        {
          "internalType": "uint256",
          "name": "",
          "type": "uint256"
        }
      ],
      "stateMutability": "view",
      "type": "function"
    },
    {
      "inputs": [
        {
          "internalType": "uint256",
          "name": "",
          "type": "uint256"
        }
      ],
      "name": "allowedTokens",
      "outputs": [
        {
          "internalType": "address",
          "name": "",
          "type": "address"
        }
      ],
      "stateMutability": "view",
      "type": "function"
    },
    {
      "inputs": [],
      "name": "dappToken",
      "outputs": [
        {
          "internalType": "contract IERC20",
          "name": "",
          "type": "address"
        }
      ],
      "stateMutability": "view",
      "type": "function"
    },
    {
      "inputs": [],
      "name": "get10DappToken",
      "outputs": [],
      "stateMutability": "nonpayable",
      "type": "function"
    },
    {
      "inputs": [
        {
          "internalType": "address",
          "name": "_token",
          "type": "address"
        }
      ],
      "name": "getTokenValue",
      "outputs": [
        {
          "internalType": "uint256",
          "name": "",
          "type": "uint256"
        },
        {
          "internalType": "uint256",
          "name": "",
          "type": "uint256"
        }
      ],
      "stateMutability": "view",
      "type": "function"
    },
    {
      "inputs": [
        {
          "internalType": "address",
          "name": "_user",
          "type": "address"
        },
        {
          "internalType": "address",
          "name": "_token",
          "type": "address"
        }
      ],
      "name": "getUserSingleTokenValue",
      "outputs": [
        {
          "internalType": "uint256",
          "name": "",
          "type": "uint256"
        }
      ],
      "stateMutability": "view",
      "type": "function"
    },
    {
      "inputs": [
        {
          "internalType": "address",
          "name": "_user",
          "type": "address"
        }
      ],
      "name": "getUserTotalValue",
      "outputs": [
        {
          "internalType": "uint256",
          "name": "",
          "type": "uint256"
        }
      ],
      "stateMutability": "view",
      "type": "function"
    },
    {
      "inputs": [],
      "name": "issueRewards",
      "outputs": [],
      "stateMutability": "nonpayable",
      "type": "function"
    },
    {
      "inputs": [],
      "name": "owner",
      "outputs": [
        {
          "internalType": "address",
          "name": "",
          "type": "address"
        }
      ],
      "stateMutability": "view",
      "type": "function"
    },
    {
      "inputs": [],
      "name": "renounceOwnership",
      "outputs": [],
      "stateMutability": "nonpayable",
      "type": "function"
    },
    {
      "inputs": [
        {
          "internalType": "address",
          "name": "_token",
          "type": "address"
        },
        {
          "internalType": "address",
          "name": "_priceFeed",
          "type": "address"
        }
      ],
      "name": "setPriceFeedContract",
      "outputs": [],
      "stateMutability": "nonpayable",
      "type": "function"
    },
    {
      "inputs": [
        {
          "internalType": "uint256",
          "name": "_amount",
          "type": "uint256"
        },
        {
          "internalType": "address",
          "name": "_token",
          "type": "address"
        }
      ],
      "name": "stakeTokens",
      "outputs": [],
      "stateMutability": "nonpayable",
      "type": "function"
    },
    {
      "inputs": [
        {
          "internalType": "uint256",
          "name": "",
          "type": "uint256"
        }
      ],
      "name": "stakers",
      "outputs": [
        {
          "internalType": "address",
          "name": "",
          "type": "address"
        }
      ],
      "stateMutability": "view",
      "type": "function"
    },
    {
      "inputs": [
        {
          "internalType": "address",
          "name": "",
          "type": "address"
        },
        {
          "internalType": "address",
          "name": "",
          "type": "address"
        }
      ],
      "name": "stakingBalance",
      "outputs": [
        {
          "internalType": "uint256",
          "name": "",
          "type": "uint256"
        }
      ],
      "stateMutability": "view",
      "type": "function"
    },
    {
      "inputs": [
        {
          "internalType": "address",
          "name": "",
          "type": "address"
        },
        {
          "internalType": "address",
          "name": "",
          "type": "address"
        }
      ],
      "name": "stakingReward",
      "outputs": [
        {
          "internalType": "uint256",
          "name": "",
          "type": "uint256"
        }
      ],
      "stateMutability": "view",
      "type": "function"
    },
    {
      "inputs": [
        {
          "internalType": "address",
          "name": "_token",
          "type": "address"
        }
      ],
      "name": "tokenIsAllowed",
      "outputs": [
        {
          "internalType": "bool",
          "name": "",
          "type": "bool"
        }
      ],
      "stateMutability": "view",
      "type": "function"
    },
    {
      "inputs": [
        {
          "internalType": "address",
          "name": "",
          "type": "address"
        }
      ],
      "name": "tokenPriceFeedMapping",
      "outputs": [
        {
          "internalType": "address",
          "name": "",
          "type": "address"
        }
      ],
      "stateMutability": "view",
      "type": "function"
    },
    {
      "inputs": [
        {
          "internalType": "address",
          "name": "newOwner",
          "type": "address"
        }
      ],
      "name": "transferOwnership",
      "outputs": [],
      "stateMutability": "nonpayable",
      "type": "function"
    },
    {
      "inputs": [
        {
          "internalType": "address",
          "name": "",
          "type": "address"
        }
      ],
      "name": "uniqueTokensStaked",
      "outputs": [
        {
          "internalType": "uint256",
          "name": "",
          "type": "uint256"
        }
      ],
      "stateMutability": "view",
      "type": "function"
    },
    {
      "inputs": [
        {
          "internalType": "address",
          "name": "_token",
          "type": "address"
        },
        {
          "internalType": "uint256",
          "name": "_amount",
          "type": "uint256"
        }
      ],
      "name": "unstakeTokens",
      "outputs": [],
      "stateMutability": "nonpayable",
      "type": "function"
    },
    {
      "inputs": [
        {
          "internalType": "address",
          "name": "_token",
          "type": "address"
        }
      ],
      "name": "withdrawReward",
      "outputs": [],
      "stateMutability": "nonpayable",
      "type": "function"
    }
  ],
  "bytecode": "0x60806040523480156200001157600080fd5b5060405162002ab138038062002ab18339818101604052810190620000379190620001d5565b620000576200004b6200009f60201b60201c565b620000a760201b60201c565b80600860006101000a81548173ffffffffffffffffffffffffffffffffffffffff021916908373ffffffffffffffffffffffffffffffffffffffff1602179055505062000207565b600033905090565b60008060009054906101000a900473ffffffffffffffffffffffffffffffffffffffff169050816000806101000a81548173ffffffffffffffffffffffffffffffffffffffff021916908373ffffffffffffffffffffffffffffffffffffffff1602179055508173ffffffffffffffffffffffffffffffffffffffff168173ffffffffffffffffffffffffffffffffffffffff167f8be0079c531659141344cd1fd0a4f28419497f9722a3daafe3b4186f6b6457e060405160405180910390a35050565b600080fd5b600073ffffffffffffffffffffffffffffffffffffffff82169050919050565b60006200019d8262000170565b9050919050565b620001af8162000190565b8114620001bb57600080fd5b50565b600081519050620001cf81620001a4565b92915050565b600060208284031215620001ee57620001ed6200016b565b5b6000620001fe84828501620001be565b91505092915050565b61289a80620002176000396000f3fe608060405234801561001057600080fd5b50600436106101375760003560e01c8063877dd39d116100b8578063b86e321c1161007c578063b86e321c1461034e578063dd5b84671461036a578063e89a173e1461039a578063f1c5d6c2146103b6578063f2fde38b146103e7578063fd5e6dd11461040357610137565b8063877dd39d146102aa5780638da5cb5b146102c6578063af3f5e22146102e4578063b0370e0c14610314578063b83e02341461031e57610137565b8063387ad87c116100ff578063387ad87c146102185780635e5f2e26146102485780635eb186f814610278578063715018a6146102965780638144fee0146102a057610137565b8063014ff6341461013c5780630bea440d1461016c578063276b11da1461018857806327927b3e146101b857806329161a00146101e8575b600080fd5b61015660048036038101906101519190611cb5565b610433565b6040516101639190611d0e565b60405180910390f35b61018660048036038101906101819190611d55565b610458565b005b6101a2600480360381019061019d9190611cb5565b6106c0565b6040516101af9190611d0e565b60405180910390f35b6101d260048036038101906101cd9190611d95565b6107cb565b6040516101df9190611dd1565b60405180910390f35b61020260048036038101906101fd9190611cb5565b6107fe565b60405161020f9190611d0e565b60405180910390f35b610232600480360381019061022d9190611d95565b610823565b60405161023f9190611d0e565b60405180910390f35b610262600480360381019061025d9190611dec565b61083b565b60405161026f9190611dd1565b60405180910390f35b61028061087a565b60405161028d9190611e78565b60405180910390f35b61029e6108a0565b005b6102a86108b4565b005b6102c460048036038101906102bf9190611cb5565b610a44565b005b6102ce610bde565b6040516102db9190611dd1565b60405180910390f35b6102fe60048036038101906102f99190611d95565b610c07565b60405161030b9190611d0e565b60405180910390f35b61031c610c90565b005b61033860048036038101906103339190611d95565b610f7e565b6040516103459190611d0e565b60405180910390f35b61036860048036038101906103639190611d95565b610f96565b005b610384600480360381019061037f9190611d95565b611187565b6040516103919190611eae565b60405180910390f35b6103b460048036038101906103af9190611ec9565b611236565b005b6103d060048036038101906103cb9190611d95565b6117df565b6040516103de929190611f09565b60405180910390f35b61040160048036038101906103fc9190611d95565b611965565b005b61041d60048036038101906104189190611dec565b6119e9565b60405161042a9190611dd1565b60405180910390f35b6002602052816000526040600020602052806000526040600020600091509150505481565b6000821161049b576040517f08c379a000000000000000000000000000000000000000000000000000000000815260040161049290611f8f565b60405180910390fd5b6104a481611187565b6104e3576040517f08c379a00000000000000000000000000000000000000000000000000000000081526004016104da90611ffb565b60405180910390fd5b8073ffffffffffffffffffffffffffffffffffffffff166323b872dd3330856040518463ffffffff1660e01b81526004016105209392919061201b565b602060405180830381600087803b15801561053a57600080fd5b505af115801561054e573d6000803e3d6000fd5b505050506040513d601f19601f82011682018060405250810190610572919061207e565b5061057d3382611a28565b81600160008373ffffffffffffffffffffffffffffffffffffffff1673ffffffffffffffffffffffffffffffffffffffff16815260200190815260200160002060003373ffffffffffffffffffffffffffffffffffffffff1673ffffffffffffffffffffffffffffffffffffffff168152602001908152602001600020600082825461060991906120da565b925050819055506001600360003373ffffffffffffffffffffffffffffffffffffffff1673ffffffffffffffffffffffffffffffffffffffff1681526020019081526020016000205414156106bc576006339080600181540180825580915050600190039060005260206000200160009091909190916101000a81548173ffffffffffffffffffffffffffffffffffffffff021916908373ffffffffffffffffffffffffffffffffffffffff1602179055505b5050565b600080600360008573ffffffffffffffffffffffffffffffffffffffff1673ffffffffffffffffffffffffffffffffffffffff168152602001908152602001600020541161071157600090506107c5565b60008061071d846117df565b9150915080600a61072e9190612263565b82600160008773ffffffffffffffffffffffffffffffffffffffff1673ffffffffffffffffffffffffffffffffffffffff16815260200190815260200160002060008873ffffffffffffffffffffffffffffffffffffffff1673ffffffffffffffffffffffffffffffffffffffff168152602001908152602001600020546107b691906122ae565b6107c09190612337565b925050505b92915050565b60046020528060005260406000206000915054906101000a900473ffffffffffffffffffffffffffffffffffffffff1681565b6001602052816000526040600020602052806000526040600020600091509150505481565b60056020528060005260406000206000915090505481565b6007818154811061084b57600080fd5b906000526020600020016000915054906101000a900473ffffffffffffffffffffffffffffffffffffffff1681565b600860009054906101000a900473ffffffffffffffffffffffffffffffffffffffff1681565b6108a8611b08565b6108b26000611b86565b565b62015180600560003373ffffffffffffffffffffffffffffffffffffffff1673ffffffffffffffffffffffffffffffffffffffff16815260200190815260200160002054426109039190612368565b101561094657336040517f64187f0e00000000000000000000000000000000000000000000000000000000815260040161093d9190611dd1565b60405180910390fd5b42600560003373ffffffffffffffffffffffffffffffffffffffff1673ffffffffffffffffffffffffffffffffffffffff16815260200190815260200160002081905550600860009054906101000a900473ffffffffffffffffffffffffffffffffffffffff1673ffffffffffffffffffffffffffffffffffffffff1663a9059cbb33678ac7230489e800006040518363ffffffff1660e01b81526004016109ef9291906123d7565b602060405180830381600087803b158015610a0957600080fd5b505af1158015610a1d573d6000803e3d6000fd5b505050506040513d601f19601f82011682018060405250810190610a41919061207e565b50565b610a4c611b08565b600080600780549050905060005b81811015610af0578473ffffffffffffffffffffffffffffffffffffffff1660078281548110610a8d57610a8c612400565b5b9060005260206000200160009054906101000a900473ffffffffffffffffffffffffffffffffffffffff1673ffffffffffffffffffffffffffffffffffffffff161415610add5760019250610af0565b8080610ae89061242f565b915050610a5a565b5081610b5a576007849080600181540180825580915050600190039060005260206000200160009091909190916101000a81548173ffffffffffffffffffffffffffffffffffffffff021916908373ffffffffffffffffffffffffffffffffffffffff1602179055505b82600460008673ffffffffffffffffffffffffffffffffffffffff1673ffffffffffffffffffffffffffffffffffffffff16815260200190815260200160002060006101000a81548173ffffffffffffffffffffffffffffffffffffffff021916908373ffffffffffffffffffffffffffffffffffffffff16021790555050505050565b60008060009054906101000a900473ffffffffffffffffffffffffffffffffffffffff16905090565b6000806000905060005b600780549050811015610c8657610c668460078381548110610c3657610c35612400565b5b9060005260206000200160009054906101000a900473ffffffffffffffffffffffffffffffffffffffff166106c0565b82610c7191906120da565b91508080610c7e9061242f565b915050610c11565b5080915050919050565b610c98611b08565b60005b600680549050811015610f7b5760005b600780549050811015610f675760006001600060078481548110610cd257610cd1612400565b5b9060005260206000200160009054906101000a900473ffffffffffffffffffffffffffffffffffffffff1673ffffffffffffffffffffffffffffffffffffffff1673ffffffffffffffffffffffffffffffffffffffff168152602001908152602001600020600060068581548110610d4d57610d4c612400565b5b9060005260206000200160009054906101000a900473ffffffffffffffffffffffffffffffffffffffff1673ffffffffffffffffffffffffffffffffffffffff1673ffffffffffffffffffffffffffffffffffffffff168152602001908152602001600020541115610f54576000610e4160068481548110610dd257610dd1612400565b5b9060005260206000200160009054906101000a900473ffffffffffffffffffffffffffffffffffffffff1660078481548110610e1157610e10612400565b5b9060005260206000200160009054906101000a900473ffffffffffffffffffffffffffffffffffffffff166106c0565b9050806002600060068681548110610e5c57610e5b612400565b5b9060005260206000200160009054906101000a900473ffffffffffffffffffffffffffffffffffffffff1673ffffffffffffffffffffffffffffffffffffffff1673ffffffffffffffffffffffffffffffffffffffff168152602001908152602001600020600060078581548110610ed757610ed6612400565b5b9060005260206000200160009054906101000a900473ffffffffffffffffffffffffffffffffffffffff1673ffffffffffffffffffffffffffffffffffffffff1673ffffffffffffffffffffffffffffffffffffffff1681526020019081526020016000206000828254610f4b91906120da565b92505081905550505b8080610f5f9061242f565b915050610cab565b508080610f739061242f565b915050610c9b565b50565b60036020528060005260406000206000915090505481565b6000600260003373ffffffffffffffffffffffffffffffffffffffff1673ffffffffffffffffffffffffffffffffffffffff16815260200190815260200160002060008373ffffffffffffffffffffffffffffffffffffffff1673ffffffffffffffffffffffffffffffffffffffff16815260200190815260200160002054905060008111611051576040517fd67ecd6100000000000000000000000000000000000000000000000000000000815260040160405180910390fd5b6000600260003373ffffffffffffffffffffffffffffffffffffffff1673ffffffffffffffffffffffffffffffffffffffff16815260200190815260200160002060008473ffffffffffffffffffffffffffffffffffffffff1673ffffffffffffffffffffffffffffffffffffffff16815260200190815260200160002081905550600860009054906101000a900473ffffffffffffffffffffffffffffffffffffffff1673ffffffffffffffffffffffffffffffffffffffff1663a9059cbb33836040518363ffffffff1660e01b8152600401611130929190612478565b602060405180830381600087803b15801561114a57600080fd5b505af115801561115e573d6000803e3d6000fd5b505050506040513d601f19601f82011682018060405250810190611182919061207e565b505050565b600080600090505b60078054905081101561122b57600781815481106111b0576111af612400565b5b9060005260206000200160009054906101000a900473ffffffffffffffffffffffffffffffffffffffff1673ffffffffffffffffffffffffffffffffffffffff168373ffffffffffffffffffffffffffffffffffffffff161415611218576001915050611231565b80806112239061242f565b91505061118f565b50600090505b919050565b6000600160008473ffffffffffffffffffffffffffffffffffffffff1673ffffffffffffffffffffffffffffffffffffffff16815260200190815260200160002060003373ffffffffffffffffffffffffffffffffffffffff1673ffffffffffffffffffffffffffffffffffffffff168152602001908152602001600020549050600081116112fa576040517f08c379a00000000000000000000000000000000000000000000000000000000081526004016112f1906124ed565b60405180910390fd5b600082600160008673ffffffffffffffffffffffffffffffffffffffff1673ffffffffffffffffffffffffffffffffffffffff16815260200190815260200160002060003373ffffffffffffffffffffffffffffffffffffffff1673ffffffffffffffffffffffffffffffffffffffff168152602001908152602001600020546113849190612368565b10156113c5576040517f08c379a00000000000000000000000000000000000000000000000000000000081526004016113bc9061257f565b60405180910390fd5b8273ffffffffffffffffffffffffffffffffffffffff1663a9059cbb33846040518363ffffffff1660e01b8152600401611400929190612478565b602060405180830381600087803b15801561141a57600080fd5b505af115801561142e573d6000803e3d6000fd5b505050506040513d601f19601f82011682018060405250810190611452919061207e565b5081600160008573ffffffffffffffffffffffffffffffffffffffff1673ffffffffffffffffffffffffffffffffffffffff16815260200190815260200160002060003373ffffffffffffffffffffffffffffffffffffffff1673ffffffffffffffffffffffffffffffffffffffff16815260200190815260200160002060008282546114df9190612368565b925050819055506000600160008573ffffffffffffffffffffffffffffffffffffffff1673ffffffffffffffffffffffffffffffffffffffff16815260200190815260200160002060003373ffffffffffffffffffffffffffffffffffffffff1673ffffffffffffffffffffffffffffffffffffffff1681526020019081526020016000205414156117d957600360003373ffffffffffffffffffffffffffffffffffffffff1673ffffffffffffffffffffffffffffffffffffffff16815260200190815260200160002060008154809291906115bb9061259f565b91905055506000600360003373ffffffffffffffffffffffffffffffffffffffff1673ffffffffffffffffffffffffffffffffffffffff1681526020019081526020016000205414156117d85760005b6006805490508110156117d6573373ffffffffffffffffffffffffffffffffffffffff166006828154811061164357611642612400565b5b9060005260206000200160009054906101000a900473ffffffffffffffffffffffffffffffffffffffff1673ffffffffffffffffffffffffffffffffffffffff1614156117c357600680549050811061169d5750506117db565b60008190505b60016006805490506116b59190612368565b8110156117765760066001826116cb91906120da565b815481106116dc576116db612400565b5b9060005260206000200160009054906101000a900473ffffffffffffffffffffffffffffffffffffffff166006828154811061171b5761171a612400565b5b9060005260206000200160006101000a81548173ffffffffffffffffffffffffffffffffffffffff021916908373ffffffffffffffffffffffffffffffffffffffff160217905550808061176e9061242f565b9150506116a3565b506006805480611789576117886125c9565b5b6001900381819060005260206000200160006101000a81549073ffffffffffffffffffffffffffffffffffffffff021916905590556117d6565b80806117ce9061242f565b91505061160b565b505b5b505b5050565b6000806000600460008573ffffffffffffffffffffffffffffffffffffffff1673ffffffffffffffffffffffffffffffffffffffff16815260200190815260200160002060009054906101000a900473ffffffffffffffffffffffffffffffffffffffff169050600081905060008173ffffffffffffffffffffffffffffffffffffffff1663feaf968c6040518163ffffffff1660e01b815260040160a06040518083038186803b15801561189357600080fd5b505afa1580156118a7573d6000803e3d6000fd5b505050506040513d601f19601f820116820180604052508101906118cb9190612685565b50505091505060008273ffffffffffffffffffffffffffffffffffffffff1663313ce5676040518163ffffffff1660e01b815260040160206040518083038186803b15801561191957600080fd5b505afa15801561192d573d6000803e3d6000fd5b505050506040513d601f19601f820116820180604052508101906119519190612739565b60ff16905081819550955050505050915091565b61196d611b08565b600073ffffffffffffffffffffffffffffffffffffffff168173ffffffffffffffffffffffffffffffffffffffff1614156119dd576040517f08c379a00000000000000000000000000000000000000000000000000000000081526004016119d4906127d8565b60405180910390fd5b6119e681611b86565b50565b600681815481106119f957600080fd5b906000526020600020016000915054906101000a900473ffffffffffffffffffffffffffffffffffffffff1681565b6000600160008373ffffffffffffffffffffffffffffffffffffffff1673ffffffffffffffffffffffffffffffffffffffff16815260200190815260200160002060008473ffffffffffffffffffffffffffffffffffffffff1673ffffffffffffffffffffffffffffffffffffffff1681526020019081526020016000205411611b04576001600360008473ffffffffffffffffffffffffffffffffffffffff1673ffffffffffffffffffffffffffffffffffffffff1681526020019081526020016000206000828254611afc91906120da565b925050819055505b5050565b611b10611c4a565b73ffffffffffffffffffffffffffffffffffffffff16611b2e610bde565b73ffffffffffffffffffffffffffffffffffffffff1614611b84576040517f08c379a0000000000000000000000000000000000000000000000000000000008152600401611b7b90612844565b60405180910390fd5b565b60008060009054906101000a900473ffffffffffffffffffffffffffffffffffffffff169050816000806101000a81548173ffffffffffffffffffffffffffffffffffffffff021916908373ffffffffffffffffffffffffffffffffffffffff1602179055508173ffffffffffffffffffffffffffffffffffffffff168173ffffffffffffffffffffffffffffffffffffffff167f8be0079c531659141344cd1fd0a4f28419497f9722a3daafe3b4186f6b6457e060405160405180910390a35050565b600033905090565b600080fd5b600073ffffffffffffffffffffffffffffffffffffffff82169050919050565b6000611c8282611c57565b9050919050565b611c9281611c77565b8114611c9d57600080fd5b50565b600081359050611caf81611c89565b92915050565b60008060408385031215611ccc57611ccb611c52565b5b6000611cda85828601611ca0565b9250506020611ceb85828601611ca0565b9150509250929050565b6000819050919050565b611d0881611cf5565b82525050565b6000602082019050611d236000830184611cff565b92915050565b611d3281611cf5565b8114611d3d57600080fd5b50565b600081359050611d4f81611d29565b92915050565b60008060408385031215611d6c57611d6b611c52565b5b6000611d7a85828601611d40565b9250506020611d8b85828601611ca0565b9150509250929050565b600060208284031215611dab57611daa611c52565b5b6000611db984828501611ca0565b91505092915050565b611dcb81611c77565b82525050565b6000602082019050611de66000830184611dc2565b92915050565b600060208284031215611e0257611e01611c52565b5b6000611e1084828501611d40565b91505092915050565b6000819050919050565b6000611e3e611e39611e3484611c57565b611e19565b611c57565b9050919050565b6000611e5082611e23565b9050919050565b6000611e6282611e45565b9050919050565b611e7281611e57565b82525050565b6000602082019050611e8d6000830184611e69565b92915050565b60008115159050919050565b611ea881611e93565b82525050565b6000602082019050611ec36000830184611e9f565b92915050565b60008060408385031215611ee057611edf611c52565b5b6000611eee85828601611ca0565b9250506020611eff85828601611d40565b9150509250929050565b6000604082019050611f1e6000830185611cff565b611f2b6020830184611cff565b9392505050565b600082825260208201905092915050565b7f416d6f756e74206d757374206265206d6f7265207468616e207a65726f210000600082015250565b6000611f79601e83611f32565b9150611f8482611f43565b602082019050919050565b60006020820190508181036000830152611fa881611f6c565b9050919050565b7f546f6b656e2069732063757272656e746c79206e6f7420616c6c6f7765642100600082015250565b6000611fe5601f83611f32565b9150611ff082611faf565b602082019050919050565b6000602082019050818103600083015261201481611fd8565b9050919050565b60006060820190506120306000830186611dc2565b61203d6020830185611dc2565b61204a6040830184611cff565b949350505050565b61205b81611e93565b811461206657600080fd5b50565b60008151905061207881612052565b92915050565b60006020828403121561209457612093611c52565b5b60006120a284828501612069565b91505092915050565b7f4e487b7100000000000000000000000000000000000000000000000000000000600052601160045260246000fd5b60006120e582611cf5565b91506120f083611cf5565b9250827fffffffffffffffffffffffffffffffffffffffffffffffffffffffffffffffff03821115612125576121246120ab565b5b828201905092915050565b60008160011c9050919050565b6000808291508390505b600185111561218757808604811115612163576121626120ab565b5b60018516156121725780820291505b808102905061218085612130565b9450612147565b94509492505050565b6000826121a0576001905061225c565b816121ae576000905061225c565b81600181146121c457600281146121ce576121fd565b600191505061225c565b60ff8411156121e0576121df6120ab565b5b8360020a9150848211156121f7576121f66120ab565b5b5061225c565b5060208310610133831016604e8410600b84101617156122325782820a90508381111561222d5761222c6120ab565b5b61225c565b61223f848484600161213d565b92509050818404811115612256576122556120ab565b5b81810290505b9392505050565b600061226e82611cf5565b915061227983611cf5565b92506122a67fffffffffffffffffffffffffffffffffffffffffffffffffffffffffffffffff8484612190565b905092915050565b60006122b982611cf5565b91506122c483611cf5565b9250817fffffffffffffffffffffffffffffffffffffffffffffffffffffffffffffffff04831182151516156122fd576122fc6120ab565b5b828202905092915050565b7f4e487b7100000000000000000000000000000000000000000000000000000000600052601260045260246000fd5b600061234282611cf5565b915061234d83611cf5565b92508261235d5761235c612308565b5b828204905092915050565b600061237382611cf5565b915061237e83611cf5565b925082821015612391576123906120ab565b5b828203905092915050565b6000819050919050565b60006123c16123bc6123b78461239c565b611e19565b611cf5565b9050919050565b6123d1816123a6565b82525050565b60006040820190506123ec6000830185611dc2565b6123f960208301846123c8565b9392505050565b7f4e487b7100000000000000000000000000000000000000000000000000000000600052603260045260246000fd5b600061243a82611cf5565b91507fffffffffffffffffffffffffffffffffffffffffffffffffffffffffffffffff82141561246d5761246c6120ab565b5b600182019050919050565b600060408201905061248d6000830185611dc2565b61249a6020830184611cff565b9392505050565b7f5374616b696e672062616c616e63652063616e6e6f7420626520300000000000600082015250565b60006124d7601b83611f32565b91506124e2826124a1565b602082019050919050565b60006020820190508181036000830152612506816124ca565b9050919050565b7f62616c616e6365202d20616d6f756e7420756e7374616b6564206d757374206260008201527f65206d6f7265207468616e206f7220657175616c20746f207a65726f00000000602082015250565b6000612569603c83611f32565b91506125748261250d565b604082019050919050565b600060208201905081810360008301526125988161255c565b9050919050565b60006125aa82611cf5565b915060008214156125be576125bd6120ab565b5b600182039050919050565b7f4e487b7100000000000000000000000000000000000000000000000000000000600052603160045260246000fd5b600069ffffffffffffffffffff82169050919050565b612617816125f8565b811461262257600080fd5b50565b6000815190506126348161260e565b92915050565b6000819050919050565b61264d8161263a565b811461265857600080fd5b50565b60008151905061266a81612644565b92915050565b60008151905061267f81611d29565b92915050565b600080600080600060a086880312156126a1576126a0611c52565b5b60006126af88828901612625565b95505060206126c08882890161265b565b94505060406126d188828901612670565b93505060606126e288828901612670565b92505060806126f388828901612625565b9150509295509295909350565b600060ff82169050919050565b61271681612700565b811461272157600080fd5b50565b6000815190506127338161270d565b92915050565b60006020828403121561274f5761274e611c52565b5b600061275d84828501612724565b91505092915050565b7f4f776e61626c653a206e6577206f776e657220697320746865207a65726f206160008201527f6464726573730000000000000000000000000000000000000000000000000000602082015250565b60006127c2602683611f32565b91506127cd82612766565b604082019050919050565b600060208201905081810360008301526127f1816127b5565b9050919050565b7f4f776e61626c653a2063616c6c6572206973206e6f7420746865206f776e6572600082015250565b600061282e602083611f32565b9150612839826127f8565b602082019050919050565b6000602082019050818103600083015261285d81612821565b905091905056fea2646970667358221220c164e00de99bb42abea73b35f5b0b0e15f8a8866226d0efa116c688a4d61018564736f6c63430008080033",
  "linkReferences": {},
  "deployedLinkReferences": {}
}